:020000040800F2
:1000000000180020A50E0008510E00085B0E000825
:1000100000000000000000000000000000000000E0
:10002000000000000000000000000000610E000859
:1000300000000000000000006B0E0008750E0008B4
:10004000250F000800000000250F0008250F0008FC
:10005000250F0008830E0008250F0008250F000853
:1000600000000000250F0008250F0008250F0008DC
:10007000250F0008250F0008250F000800000000CC
:10008000250F00080000000000000000250F0008F8
:1000900000000000250F0008250F0008250F0008AC
:1000A00000000000250F000800000000250F0008D8
:1000B000250F00080000000000000000250F0008C8
:1000C00010B5064C2378002B07D1054B002B02D02E
:1000D000044800E000BF0123237010BD0C00002085
:1000E0000000000018350008044B10B5002B03D0A9
:1000F0000349044800E000BF10BDC04600000000F6
:100100001000002018350008002243088B4274D3E9
:1001100003098B425FD3030A8B4244D3030B8B4208
:1001200028D3030C8B420DD3FF22090212BA030C11
:100130008B4202D31212090265D0030B8B4219D3F2
:1001400000E0090AC30B8B4201D3CB03C01A524112
:10015000830B8B4201D38B03C01A5241430B8B425A
:1001600001D34B03C01A5241030B8B4201D30B0343
:10017000C01A5241C30A8B4201D3CB02C01A52416A
:10018000830A8B4201D38B02C01A5241430A8B422D
:1001900001D34B02C01A5241030A8B4201D30B0216
:1001A000C01A5241CDD2C3098B4201D3CB01C01A30
:1001B000524183098B4201D38B01C01A524143093A
:1001C0008B4201D34B01C01A524103098B4201D328
:1001D0000B01C01A5241C3088B4201D3CB00C01A95
:1001E000524183088B4201D38B00C01A524143080D
:1001F0008B4201D34B00C01A5241411A00D2014632
:10020000524110467047FFE701B5002000F006F8A4
:1002100002BDC0460029F7D076E770477047C04658
:1002200080B584B000AF786039600023FB60FB6864
:10023000062B0FDCFB687A68D3181A78FB683968DC
:10024000CB181B789A4201D0002304E0FB680133ED
:10025000FB60ECE701231800BD4604B080BD000040
:10026000B0B59CB002AF00F05FFE00F0D3F800F034
:100270008FF900F017F900F057F980239C015F4ACD
:100280009023D905342578198023DB00019380233E
:100290009B000093230000F032FA7B19180000F055
:1002A00096FA9023DB050221180001F011F90300F2
:1002B000013B5A425341DBB2002BF2D000237B6654
:1002C0007B6E012B15DC4E4B01220221180001F040
:1002D0001CF9642000F08CFE494B0022022118001A
:1002E00001F013F9642000F083FE7B6E01337B661E
:1002F000E6E700233B663B6E042BD2DC2C217B1807
:10030000404A11CA11C3791834243819012308222C
:1003100000F021FA3B190121180000F0AFFB002387
:10032000FB65FB6D042B64DC4B2000F061FE572560
:100330007C193423FB18180000F0D1FB0300237054
:100340002423FB18180008231A00002103F0DBF80F
:100350007B191B78002B47D00C217B182A4A31CA05
:1003600031C311CA11C312781A70FA239B0079188D
:100370002648152202F0F4FC5723FB181A7824248F
:1003800039193423FB18180000F0DEFBFA239B0018
:1003900039191E48082202F0E3FC3B1D1C4A03CA1F
:1003A00003C33A1D3B1911001800FFF739FF031E64
:1003B0001ED00023BB65BB6D092B19DC104B01223D
:1003C0000221180001F0A1F8642000F011FE0C4B8E
:1003D00000220221180001F098F8642000F008FEC5
:1003E000BB6D0133BB65E6E7FB6D0133FB6598E749
:1003F000C0463B6E01333B667DE7C04628000020C7
:100400000004004830350008383500088C00002012
:100410005035000890B591B000AF10243B1918007A
:1004200030231A00002103F06EF83B00180010235F
:100430001A00002103F067F821007B1802221A60DD
:100440007B180122DA607B1810221A617B180022C7
:100450001A627B18180001F09BF803005A1E9341A2
:10046000DBB2002B01D000F045F93B0007221A60F7
:100470003B0000225A603B0000229A603B000022B1
:10048000DA603B000021180001F0A0FB03005A1EB7
:100490009341DBB2002B01D000F02CF9C046BD46E1
:1004A00011B090BD80B500AF1D4B1E4A1A601C4BA9
:1004B000822252005A601A4B00229A60184BE022A6
:1004C000D200DA60164B00221A61154B00225A61E5
:1004D000134B802292009A61114B2822DA61104B53
:1004E00000221A620E4B00225A620D4B00229A62C1
:1004F0000B4B0722DA620A4B00221A63084B0822D0
:100500005A63074B180001F0B5FC03005A1E9341D3
:10051000DBB2002B01D000F0EDF8C046BD4680BD37
:10052000280000200030014080B500AF164B174A6C
:100530001A60154B962212025A60134B00229A60E1
:10054000114B0022DA60104B00221A610E4B0C2274
:100550005A610D4B00229A610B4B0022DA610A4B63
:1005600000221A62084B00225A62074B180002F060
:10057000A3FB03005A1E9341DBB2002B01D000F015
:10058000B9F8C046BD4680BD8C0000200044004044
:1005900090B589B000AF0C243B19180014231A0041
:1005A000002102F0B0FF4E4B5A694D4B8021C90328
:1005B0000A435A614A4B5A698023DB031340BB60EC
:1005C000BB68474B5A69464B802189020A435A61EE
:1005D000434B5A6980239B0213407B607B68404BEE
:1005E0005A693F4B8021C9020A435A613C4B5A6900
:1005F0008023DB0213403B603B683A4B0022022120
:10060000180000F082FF882399019023DB05002267
:10061000180000F07AFF3B1903221A603B19324A96
:100620005A603B1902229A603B19304A19001000A7
:1006300000F0DEFD3B1902221A603B1900225A60CD
:100640003B1902229A603A199023DB051100180029
:1006500000F0CEFD3B19264A1A603B1900225A6071
:100660003B1900229A603A199023DB05110018000B
:1006700000F0BEFD21007B1802221A607B180122C7
:100680005A607B1800229A607B180022DA600C0006
:100690007B18144A1900100000F0AAFD21007B18F5
:1006A000882292011A607B1801225A607B1800226E
:1006B0009A607B180022DA607A189023DB0511001B
:1006C000180000F095FD00220021052000F05EFDDD
:1006D000052000F070FDC046BD4609B090BDC04683
:1006E00000100240000400480000111000140048EF
:1006F0001044000080B500AFC046BD4680BD80B547
:1007000084B000AFF860B9607A601A00BB1C1A8030
:10071000FB68FA2292009A83FB687A68DA60FB68C9
:10072000BA689A61FB68BA685A61FB68BA681A616C
:10073000FB68BA1C12881A80FB681822BA18128843
:100740005A80FB681C22BA1812889A80FB6818002D
:10075000BD4604B080BD80B586B000AFF860B9601A
:100760001900BB1D1A807B1D0A1C1A70FB6818003B
:1007700000F0D4F9FB68180000F06AF9FB68180073
:1007800000F04AF9BB1D1B88DAB2B968FB68180093
:1007900000F00DF914217B1800221A607B18312219
:1007A0001A707B1880229A707B187A1D12785A7002
:1007B0007918FB680422180000F064F8FA235B0043
:1007C000180000F015FCC046BD4606B080BD80B5DF
:1007D00082B000AF78607B6858697B685B880122D3
:1007E000190000F092FE642000F002FC7B6858695A
:1007F0007B685B880022190000F087FE7B68180088
:1008000000F008F87B68180000F0D0F9C046BD463B
:1008100002B080BD80B584B000AF78600F23FB18B4
:1008200044221A700E23FB1800221A700E23FB18A4
:100830001B78FF2B22D07B6898697B681B8800227D
:10084000190000F062FE7B68D8687B689B8B0F22E2
:10085000B918012201F0A8FB7B68D8687B689B8BE4
:100860000E22B918012201F021FD7B6898697B688E
:100870001B880122190000F048FED7E7C046BD469C
:1008800004B080BD80B584B000AFF860B960FB1DD6
:100890001A70FB681800FFF7BDFFFB689869FB68DA
:1008A0001B880022190000F030FEFB68D868FB1D91
:1008B0001B789AB2FB689B8BB96801F075FBFB68EB
:1008C0009869FB681B880122190000F01EFEC046D3
:1008D000BD4604B080BD90B587B000AFF860B96088
:1008E0003B60FB1D1A701423FB1844221A7010235E
:1008F000FB1800221A70FB689869FB681B880022AD
:10090000190000F002FEFB68D868FB1D1B789AB244
:10091000FB689B8BB96801F047FBFB689869FB6833
:100920001B880122190000F0F0FDFB689869FB6844
:100930001B880022190000F0E8FDFB68D868FB68FE
:100940009B8B1422B918012201F02EFBFB68D8689A
:10095000FB689B8B10243919012201F0A7FC3B197D
:100960001B78FF2B16D1FB68D868202308229446F9
:10097000BC4463441B789AB2FB689B8B396801F0D6
:1009800095FCFB689869FB681B880122190000F040
:10099000BCFD08E0FB689869FB681B880122190010
:1009A00000F0B3FDC1E7C046BD4607B090BD90B5AD
:1009B00087B000AFF860B960FB1D1A70FB681800C3
:1009C000FFF728FF14243B1966221A70FB68986908
:1009D000FB681B880022190000F097FDFB68D868AF
:1009E000FB689B8B3919012201F0DEFAFB68D8689D
:1009F000FB1D1B789AB2FB689B8BB96801F0D4FA97
:100A0000FB689869FB681B880122190000F07DFDD6
:100A1000C046BD4607B090BD80B584B000AF7860D9
:100A20000C217B1820221A707B1800225A707B1828
:100A300000229A707B180022DA7079187B680422F1
:100A40001800FFF71FFFC046BD4604B080BD000080
:100A500080B584B000AF78600C217B18064A1288FC
:100A60001A8079187B6802221800FFF70BFFC04636
:100A7000BD4604B080BDC0465835000890B585B06D
:100A800000AF78600A00FB1C1A707B681800FFF743
:100A9000DFFF7B681800FFF7BFFF7B68180000F0DE
:100AA0003DF808210C007B18180008231A000021CB
:100AB00002F029FD21007B1832221A707B180322D4
:100AC0009A717B18FA1C12785A7079187B68082280
:100AD0001800FFF7D7FEC046BD4605B090BD90B5E3
:100AE00087B002AF78600C217B1815221A707B1832
:100AF00000225A7008243B1900221A803A197918EA
:100B000078680223009313000222FFF7E4FE3B19EA
:100B10001B781800BD4605B090BD000080B584B0BC
:100B200000AF78600C217B18064A12881A80791869
:100B30007B6802221800FFF7A5FEC046BD4604B040
:100B400080BDC0465C35000890B587B000AFF86046
:100B5000B960FB1D1A7017243B1977221A70FB68C5
:100B60009869FB681B880022190000F0CEFCFB6826
:100B7000D868FB689B8B3919012201F015FAFB68D4
:100B8000D868FB1D1B789AB2FB689B8BB96801F093
:100B90008DFBFB689869FB681B880122190000F037
:100BA000B4FCC046BD4607B090BD0000B0B5454C92
:100BB000A54402AF786086239B00FB1800221A70C0
:100BC000414B8A229200BA18D218404B10001900EB
:100BD0008A23FF331A0002F08DFC3D4BFB183A4A82
:100BE0008A2189008C46BC44624412781A70012321
:100BF00088229200BA181360364B8A2292009446DB
:100C0000BC446344180080231A00002102F07BFCDE
:100C10002F4BFB181B78002B4ED00023872292000D
:100C2000BA1813602A4BFB181B7887229200BA1857
:100C300012689A421FDA244B8A24A4003A19D21867
:100C4000882080003B181B68D3181978214B3A196B
:100C5000D2188724A4003B191B68D3180A1C1A70E9
:100C60003B181B6801333A1813603B191B680133AA
:100C70003A191360D6E786239B00FC18144D7B19A4
:100C80001A780C23F9187868002300932300FFF7E3
:100C900022FE7B190C4A8A2189007918891888203C
:100CA00080003A1812688A1812781A703B181B686C
:100CB00001333A181360ABE7C046BD468A239B0058
:100CC0009D44B0BDD0FDFFFF64FEFFFF603500080E
:100CD00027020000E4FDFFFF80B582B000AF0F4B9C
:100CE0009A690E4B01210A439A610C4B9B690122C0
:100CF00013407B607B68094BDA69084B802149050A
:100D00000A43DA61054BDA6980235B0513403B60D7
:100D10003B68C046BD4602B080BDC04600100240E0
:100D200080B58AB000AF78601423FB181800142334
:100D30001A00002102F0E7FB7B681B681C4A934203
:100D400032D11C4B9A691B4B802149010A439A619D
:100D5000184B9A6980235B0113403B613B69154B3B
:100D60005A69144B802189020A435A61114B5A690E
:100D700080239B021340FB60FB6814217B18E02258
:100D80001A607B1802225A607B1800229A607B1836
:100D90000322DA607B1800221A617A189023DB059F
:100DA0001100180000F024FAC046BD460AB080BD0C
:100DB000003001400010024080B58AB000AF78607A
:100DC0001423FB18180014231A00002102F09BFBC7
:100DD0007B681B681C4A934232D11C4BDA691B4B5F
:100DE000802189020A43DA61184BDA6980239B0269
:100DF00013403B613B69154B5A69144B80218902B2
:100E00000A435A61114B5A6980239B021340FB60CD
:100E1000FB6814217B180C221A607B1802225A608E
:100E20007B1800229A607B180322DA607B1801226B
:100E30001A617A189023DB051100180000F0D8F928
:100E4000C046BD460AB080BD0044004000100240CC
:100E500080B500AFC046BD4680BD80B500AFFEE79F
:100E600080B500AFC046BD4680BD80B500AFC0466E
:100E7000BD4680BD80B500AF00F09EF8C046BD46BF
:100E800080BD80B500AF012000F05CFB022000F0C7
:100E900059FBC046BD4680BD80B500AFC046BD46CB
:100EA00080BD00001348854613480168090E134AA7
:100EB000914205D11248134901601348134901605A
:100EC00013481449144A002302E0D458C450043390
:100ED000C4188C42F9D3114A114C002301E013606D
:100EE0000432A242FBD3FFF7D7FF02F0DFFAFFF78D
:100EF000B7F9FEE700180020040000001F00000002
:100F00001810024001000000000001400000000035
:100F1000000000200C0000202C3700080C000020EE
:100F200010010020FEE7000080B500AF074B1A68F3
:100F3000064B10210A431A60002000F009F8FFF761
:100F4000CBFE00231800BD4680BDC04600200240F5
:100F500090B583B000AF7860144B1C68144B1B78BD
:100F60001900FA239800FFF7CFF8030019002000BA
:100F7000FFF7CAF80300180000F02DF9031E01D096
:100F800001230FE07B68032B0BD8796801235B42B8
:100F90000022180000F0FAF8064B7A681A60002365
:100FA00000E001231800BD4603B090BD0000002002
:100FB000080000200400002080B500AF054B1B781E
:100FC0001A00054B1B68D218034B1A60C046BD4679
:100FD00080BDC046080000200C01002080B500AF95
:100FE000024B1B681800BD4680BDC0460C010020A6
:100FF00080B584B000AF7860FFF7F0FF0300BB60FE
:101000007B68FB60FB68013305D0094B1B781A0035
:10101000FB689B18FB60C046FFF7E0FF0200BB685F
:10102000D31AFA689A42F7D8C046BD4604B080BDCC
:101030000800002080B582B000AF0200FB1D1A70CE
:10104000FB1D1B787F2B09D8FB1D1B781A001F2363
:101050001A40044B012191400A001A60C046BD4667
:1010600002B080BD00E100E090B583B000AF0200A7
:101070003960FB1D1A70FB1D1B787F2B28D82F4A67
:10108000FB1D1B785BB29B08C0339B009B58FA1D6D
:101090001278110003220A40D200FF2191400A0079
:1010A000D2431A4011003B689B01FF221A40FB1DEE
:1010B0001B78180003230340DB009A401F48FB1DE8
:1010C0001B785BB29B080A43C0339B001A5031E087
:1010D0001B4AFB1D1B7819000F230B40083B9B0884
:1010E00006339B00D31804331B68FA1D12781100D5
:1010F00003220A40D200FF2191400A00D2431A4045
:1011000011003B689B01FF221A40FB1D1B78180051
:1011100003230340DB009A400948FB1D1B781C0099
:101120000F232340083B9B080A4306339B00C31848
:1011300004331A60C046BD4603B090BD00E100E034
:1011400000ED00E080B582B000AF78607B68013BC5
:101150000C4A934201D9012310E00B4B7A68013A03
:101160005A6001235B4203211800FFF77DFF064B05
:1011700000229A60044B07221A6000231800BD4623
:1011800002B080BDFFFFFF0010E000E080B584B03A
:1011900000AFB9607A600F217B18021C1A70BA6820
:1011A0007B181B785BB211001800FFF75DFFC0468B
:1011B000BD4604B080BD80B582B000AF0200FB1D0B
:1011C0001A70FB1D1B785BB21800FFF733FFC04697
:1011D000BD4602B080BD80B582B000AF78607B684C
:1011E0001800FFF7AFFF03001800BD4602B080BD36
:1011F00080B586B000AF7860396000237B614FE135
:101200003B681B6801217A6991400A001340FB602A
:10121000FB68002B00D140E13B685B68022B03D0E8
:101220003B685B68122B23D17B69DA087B68083244
:101230009200D3583B617B69072213409B000F2229
:101240009A401300DA433B6913403B613B681A69DB
:101250007B6907210B409B009A4013003A691343B6
:101260003B617B69DA087B68083292003969D150AA
:101270007B681B683B617B695B0003229A4013001B
:10128000DA433B6913403B613B685B6803221A40C9
:101290007B695B009A4013003A6913433B617B68AA
:1012A0003A691A603B685B68012B0BD03B685B684E
:1012B000022B07D03B685B68112B03D03B685B684F
:1012C000122B30D17B689B683B617B695B000322FA
:1012D0009A401300DA433B6913403B613B68DA688C
:1012E0007B695B009A4013003A6913433B617B685A
:1012F0003A699A607B685B683B6101227B699A402E
:101300001300DA433B6913403B613B685B681B0990
:1013100001221A407B699A4013003A6913433B61EA
:101320007B683A695A607B68DB683B617B695B007C
:1013300003229A401300DA433B6913403B613B6848
:101340009A687B695B009A4013003A6913433B61DA
:101350007B683A69DA603B685A6880235B05134012
:1013600000D19AE0544B9A69534B01210A439A6188
:10137000514B9B6901221340BB60BB684F4A7B699C
:101380009B0802339B009B583B617B6903221340FF
:101390009B000F229A401300DA433B6913403B61E4
:1013A0007A689023DB059A4213D07B68444A9342C3
:1013B0000DD07B68434A934207D07B68424A9342F0
:1013C00001D1032306E0052304E0022302E0012308
:1013D00000E000237A6903210A40920093403A69B1
:1013E00013433B6135497B699B0802339B003A6993
:1013F0005A50364B1B683B61FB68DA433B6913402C
:101400003B613B685A6880235B02134003D03A6912
:10141000FB6813433B612D4B3A691A602B4B5B68A9
:101420003B61FB68DA433B6913403B613B685A68A8
:1014300080239B02134003D03A69FB6813433B614E
:10144000224B3A695A60214B9B683B61FB68DA4347
:101450003B6913403B613B685A6880235B03134040
:1014600003D03A69FB6813433B61184B3A699A60B1
:10147000164BDB683B61FB68DA433B6913403B6119
:101480003B685A6880239B03134003D03A69FB688A
:1014900013433B610D4B3A69DA607B6901337B6131
:1014A0003B681A687B69DA40131E00D0A8E6C04684
:1014B000BD4606B080BDC04600100240000001409D
:1014C0000004004800080048000C004800040140E7
:1014D00080B584B000AF78600A00BB1C1A807B68BE
:1014E0001B69BA1C1288134004D00F23FB18012279
:1014F0001A7003E00F23FB1800221A700F23FB1849
:101500001B781800BD4604B080BD80B582B000AF26
:10151000786008001100BB1C021C1A807B1C0A1C8E
:101520001A707B1C1B78002B04D0BB1C1A887B68AC
:101530009A6103E0BB1C1A887B689A62C046BD466C
:1015400002B080BD80B582B000AF0200BB1D1A8022
:10155000094B5B69BA1D1288134008D0064BBA1DAF
:1015600012885A61BB1D1B88180000F007F8C0469E
:10157000BD4602B080BDC0460004014080B582B0C7
:1015800000AF0200BB1D1A80C046BD4602B080BD40
:1015900080B588B000AF78607B68002B01D1012353
:1015A00005E37B681B680122134000D18DE0C54B29
:1015B0005B680C221340042B0ED0C24B5B680C22DC
:1015C0001340082B16D1BF4B5A68C0235B021A4048
:1015D00080235B029A420DD1BA4B1A6880239B028A
:1015E000134000D170E07B685B68002B00D06BE09B
:1015F0000123DCE27B685B68012B07D1B14B1A68E1
:10160000B04B802149020A431A602FE07B685B6877
:10161000002B0CD1AB4B1A68AA4BAB490A401A609D
:10162000A84B1A68A74BA9490A401A601EE07B68BC
:101630005B68052B0ED1A34B1A68A24B8021C9020F
:101640000A431A609F4B1A689E4B802149020A4345
:101650001A600BE09B4B1A689A4B9B490A401A6030
:10166000984B1A68974B99490A401A607B685B68E7
:10167000002B14D0FFF7B2FC0300BB6108E0FFF7BA
:10168000ADFC0200BB69D31A642B01D903238EE29F
:101690008C4B1A6880239B021340F0D015E0FFF7B3
:1016A0009DFC0300BB6108E0FFF798FC0200BB69EA
:1016B000D31A642B01D9032379E2824B1A68802361
:1016C0009B021340F0D100E0C0467B681B680222F9
:1016D000134000D16CE07B4B5B680C2213400ED0B2
:1016E000784B5B680C221340082B1FD1754B5A684E
:1016F000C0235B021A4080231B029A4216D1714B11
:101700001B680222134005D07B68DB68012B01D0E7
:1017100001234CE26B4B1B68F822934319007B6852
:101720001B69DA00674B0A431A6041E07B68DB689B
:10173000002B24D0634B1A68624B01210A431A60C4
:10174000FFF74CFC0300BB6108E0FFF747FC020019
:10175000BB69D31A022B01D9032328E2594B1B681A
:1017600002221340F1D0574B1B68F8229343190013
:101770007B681B69DA00534B0A431A6018E0514B2F
:101780001A68504B01218A431A60FFF727FC0300B7
:10179000BB6108E0FFF722FC0200BB69D31A022BF1
:1017A00001D9032303E2474B1B6802221340F1D106
:1017B0007B681B680822134036D07B68DB69002BEE
:1017C00019D0404B5A6A3F4B01210A435A62FFF736
:1017D00005FC0300BB6108E0FFF700FC0200BB69E9
:1017E000D31A022B01D90323E1E1364B5B6A0222B3
:1017F0001340F1D018E0334B5A6A324B01218A432F
:101800005A62FFF7EBFB0300BB6108E0FFF7E6FB62
:101810000200BB69D31A022B01D90323C7E1294B6C
:101820005B6A02221340F1D17B681B6804221340DB
:1018300000D1B5E01F23FB1800221A70214BDA6992
:1018400080235B05134011D11E4BDA691D4B8021AB
:1018500049050A43DA611B4BDA6980235B051340B3
:10186000FB60FB681F23FB1801221A70184B1A68D3
:1018700080235B0013401AD1154B1A68144B80214A
:1018800049000A431A60FFF7A9FB0300BB6108E0A7
:10189000FFF7A4FB0200BB69D31A642B01D9032311
:1018A00085E10B4B1A6880235B001340F0D07B6806
:1018B0009B68012B0ED1034B1A6A024B01210A438C
:1018C0001A6235E000100240FFFFFEFFFFFFFBFF42
:1018D000007000407B689B68002B0CD1B64B1A6AE5
:1018E000B54B01218A431A62B34B1A6AB24B0421E9
:1018F0008A431A621CE07B689B68052B0CD1AE4BB7
:101900001A6AAD4B04210A431A62AB4B1A6AAA4BFE
:1019100001210A431A620BE0A74B1A6AA64B012168
:101920008A431A62A44B1A6AA34B04218A431A629F
:101930007B689B68002B14D0FFF750FB0300BB6152
:1019400009E0FFF74BFB0200BB69D31A9B4A9342A5
:1019500001D903232BE1984B1B6A02221340F0D0DC
:1019600013E0FFF73BFB0300BB6109E0FFF736FB29
:101970000200BB69D31A914A934201D9032316E1AD
:101980008D4B1B6A02221340F0D11F23FB181B78DA
:10199000012B05D1884BDA69874B89490A40DA6106
:1019A0007B681B681022134063D07B685B69012B46
:1019B0002AD1814B5A6B804B04210A435A637E4BD8
:1019C0005A6B7D4B01210A435A63FFF707FB030063
:1019D000BB6108E0FFF702FB0200BB69D31A022BD0
:1019E00001D90323E3E0744B5B6B02221340F1D077
:1019F000714B5B6BF822934319007B689B69DA009B
:101A00006D4B0A435A6334E07B685B69053311D13F
:101A1000694B5A6B684B04218A435A63664B5B6B74
:101A2000F822934319007B689B69DA00624B0A43F2
:101A30005A631EE0604B5A6B5F4B04210A435A63A2
:101A40005D4B5A6B5C4B01218A435A63FFF7C6FA20
:101A50000300BB6108E0FFF7C1FA0200BB69D31ABB
:101A6000022B01D90323A2E0534B5B6B02221340EC
:101A7000F1D17B681B6A002B00D197E04E4B5B686D
:101A80000C221340082B00D16BE07B681B6A022BF1
:101A90004CD1494B1A68484B4A490A401A60FFF733
:101AA0009DFA0300BB6108E0FFF798FA0200BB69EA
:101AB000D31A022B01D9032379E03F4B1A68802304
:101AC0009B041340F0D13C4BDB6A0F229343190077
:101AD0007B68DA6A384B0A43DA62374B5B683A4A0A
:101AE000134019007B689A6A7B685B6A1A43324B21
:101AF0000A435A60304B1A682F4B802149040A432D
:101B00001A60FFF76BFA0300BB6108E0FFF766FAA3
:101B10000200BB69D31A022B01D9032347E0264BED
:101B20001A6880239B041340F0D03FE0224B1A68D0
:101B3000214B24490A401A60FFF750FA0300BB61A9
:101B400008E0FFF74BFA0200BB69D31A022B01D958
:101B500003232CE0184B1A6880239B041340F0D118
:101B600024E07B681B6A012B01D101231FE0124B8B
:101B70005B687B61104BDB6A3B617A69C0235B0267
:101B80001A407B685B6A9A420ED13B690F221A4069
:101B90007B68DB6A9A4207D17A69F0239B031A407B
:101BA0007B689B6A9A4201D0012300E00023180061
:101BB000BD4608B080BDC04600100240881300003A
:101BC000FFFFFFEFFFFFFFFEFF7FC2FF80B584B086
:101BD00000AF786039607B68002B01D10123B3E04E
:101BE0005B4B1B68012213403A689A4211D9584B4B
:101BF0001B68012293431900554B3A680A431A6047
:101C0000534B1B68012213403A689A4201D00123CA
:101C10009AE07B681B680222134015D07B681B6822
:101C20000422134006D04B4B5A684A4BE021C900AE
:101C30000A435A60474B5B68F022934319007B6864
:101C40009A68444B0A435A607B681B680122134020
:101C500040D07B685B68012B07D13E4B1A6880231C
:101C60009B02134014D101236EE07B685B68022B5A
:101C700007D1384B1A6880239B04134008D10123F5
:101C800062E0344B1B680222134001D101235BE068
:101C9000304B5B680322934319007B685A682D4BD5
:101CA0000A435A60FFF79AF90300FB6009E0FFF767
:101CB00095F90200FB68D31A274A934201D90323FE
:101CC00042E0244B5B680C221A407B685B689B00F7
:101CD0009A42ECD11E4B1B68012213403A689A428B
:101CE00011D21B4B1B68012293431900184B3A6811
:101CF0000A431A60164B1B68012213403A689A4245
:101D000001D0012320E07B681B680422134009D026
:101D1000104B5B68114A134019007B68DA680D4B61
:101D20000A435A6000F020F801000A4B5B681B0967
:101D30000F2213400A4AD35C0A00DA40094B1A60AA
:101D40000020FFF705F900231800BD4604B080BD50
:101D5000002002400010024088130000FFF8FFFF3F
:101D60000C3700080000002090B58FB000AF14239E
:101D7000FB182C4A13CA13C312681A603B1D2A4A67
:101D800013CA13C312681A600023FB620023BB62EC
:101D900000237B6300237B6200233B63234B5B6850
:101DA000FB62FB6A0C221340042B02D0082B03D0E9
:101DB0002FE01F4B3B632FE0FB6A9B0C0F2213406D
:101DC0001422BA18D35C7B62184BDB6A0F221340D3
:101DD0003A1DD35CBB62FA6AC0235B021A408023BF
:101DE0005B029A4209D1B96A1148FEF78DF90300E6
:101DF0001A007B6A53437B6308E0B96A0C48FEF71C
:101E000083F903001A007B6A53437B637B6B3B635C
:101E100002E0074B3B63C0463B6B1800BD460FB06A
:101E200090BDC046EC360008FC36000800100240A9
:101E300000127A0080B500AF024B1B681800BD4647
:101E400080BDC0460000002080B500AFFFF7F2FF64
:101E50000100064B5B681B0A07221340044AD35C4F
:101E6000D9400B001800BD4680BDC046001002409E
:101E70001C37000880B584B000AF78607B68002B09
:101E800001D101238AE07B6800229A627B685D228F
:101E90009B5CDBB2002B07D17B685C22002199544C
:101EA0007B681800FEF73CFF7B685D220221995495
:101EB0007B681B681A687B681B6840218A431A602C
:101EC0007B68DA68E023DB009A4202D90023FB60DA
:101ED00002E080235B01FB607B68DA68F0231B0172
:101EE0009A4208D07B68DA68E023DB009A4202D08D
:101EF0007B6800229A627B681B6B002B0CD17B688D
:101F0000DA68E023DB009A4203D97B6802221A6375
:101F100002E07B6801221A637B685A687B689B68D1
:101F20001A437B681B691A437B685B691A437B68A9
:101F3000996980239B000B401A437B68DB691A4335
:101F40007B681B6A1A4311007B689A6A7B681B686E
:101F50000A431A607B689B691B0C04221A407B6849
:101F60005B6A1A437B685B6B1A437B68DB681A43C6
:101F700011007B681B68FA680A435A607B681B681B
:101F8000DA697B681B6807490A40DA617B680022CE
:101F90001A667B685D220121995400231800BD4612
:101FA00004B080BDFFF7FFFF80B588B000AFF860D8
:101FB000B9603B60BB1D1A801F23FB1800221A70FA
:101FC000FB685C229B5C012B01D1022369E1FB6869
:101FD0005C2201219954FFF701F80300BB6116232D
:101FE000FB18BA1D12881A80FB685D229B5CDBB26D
:101FF000012B04D01F23FB1802221A7046E1BB6894
:10200000002B03D0BB1D1B88002B04D11F23FB1802
:1020100001221A703AE1FB685D2203219954FB68A2
:1020200000221A66FB68BA689A63FB68BA1D1288B8
:102030009A87FB68BA1D1288DA87FB6800221A6447
:10204000FB68442200219952FB68462200219952E4
:10205000FB6800221A65FB680022DA64FB689A6854
:1020600080231B029A4208D1FB681B681A68FB6830
:102070001B688021C9010A431A60FB681B681B6842
:1020800040221340402B07D0FB681B681A68FB688E
:102090001B6840210A431A60FB68DA68E023DB0012
:1020A0009A424ED9FB685B68002B04D01623FB18BC
:1020B0001B88012B3FD1FB689B6B1A88FB681B6850
:1020C000DA60FB689B6B9A1CFB689A63FB68DB8F8A
:1020D0009BB2013B9AB2FB68DA872CE0FB681B6875
:1020E0009B6802221340022B12D1FB689B6B1A885B
:1020F000FB681B68DA60FB689B6B9A1CFB689A6341
:10210000FB68DB8F9BB2013B9AB2FB68DA8712E077
:10211000FEF764FF0200BB69D31A3A689A4202D8FC
:102120003B68013302D13B68002B04D11F23FB180D
:1021300003221A70AAE0FB68DB8F9BB2002BCDD183
:1021400080E0FB685B68002B05D01623FB181B881A
:10215000012B00D071E0FB68DB8F9BB2012B12D901
:10216000FB689B6B1A88FB681B68DA60FB689B6BDB
:102170009A1CFB689A63FB68DB8F9BB2023B9AB2A6
:10218000FB68DA8759E0FB689A6BFB681B680C33C5
:1021900012781A70FB689B6B5A1CFB689A63FB6889
:1021A000DB8F9BB2013B9AB2FB68DA8745E0FB68A4
:1021B0001B689B6802221340022B2BD1FB68DB8F2C
:1021C0009BB2012B12D9FB689B6B1A88FB681B68BA
:1021D000DA60FB689B6B9A1CFB689A63FB68DB8F79
:1021E0009BB2023B9AB2FB68DA8726E0FB689A6BE7
:1021F000FB681B680C3312781A70FB689B6B5A1CC7
:10220000FB689A63FB68DB8F9BB2013B9AB2FB6869
:10221000DA8712E0FEF7E2FE0200BB69D31A3A68E1
:102220009A4202D83B68013302D13B68002B04D1AB
:102230001F23FB1803221A7028E0FB68DB8F9BB278
:10224000002BB4D1BA693968FB68180000F0EEFCC5
:10225000031E02D0FB6820221A66FB689B68002BD5
:102260000AD100233B61FB681B68DB683B61FB68AC
:102270001B689B683B613B69FB681B6E002B04D0AD
:102280001F23FB1801221A7000E0C046FB685D2284
:1022900001219954FB685C22002199541F23FB18EB
:1022A0001B781800BD4608B080BD000090B589B00D
:1022B00002AFF860B9603B60BB1D1A801723FB18A2
:1022C00000221A70FB685A6882235B009A4213D17D
:1022D000FB689B68002B0FD1FB685D220421995499
:1022E000BB1D1C88BA68B968F8683B680093230076
:1022F00000F020F9030014E1FB685C229B5C012BD9
:1023000001D102230DE1FB685C2201219954FEF703
:1023100065FE03003B61FB685D229B5CDBB2012B29
:1023200004D01723FB1802221A70EFE0BB68002BC1
:1023300003D0BB1D1B88002B04D11723FB180122DF
:102340001A70E3E0FB685D2204219954FB680022C7
:102350001A66FB68BA681A64FB68BA1D44211288C1
:102360005A52FB68BA1D462112885A52FB68002255
:102370009A63FB6800229A87FB680022DA87FB6871
:102380000022DA64FB6800221A65FB68DA68E02341
:10239000DB009A4208D9FB681B685A68FB681B6817
:1023A00062490A405A6008E0FB681B685A68FB688B
:1023B0001B68802149010A435A60FB689A688023A0
:1023C0001B029A4207D1FB681B681A68FB681B68EE
:1023D00057490A401A60FB681B681B68402213407B
:1023E000402B07D0FB681B681A68FB681B684021FC
:1023F0000A431A60FB68DA68E023DB009A4200D9DE
:1024000069E031E0FB681B689B6801221340012BE7
:1024100017D1FB681B680C331A00FB681B6C127821
:10242000D2B21A70FB681B6C5A1CFB681A64FB68FA
:1024300046229B5A9BB2013B99B2FB6846229952B5
:1024400012E0FEF7CBFD02003B69D31A3A689A42CC
:1024500002D83B68013302D13B68002B04D117231B
:10246000FB1803221A7051E0FB6846229B5A9BB26C
:10247000002BC7D135E0FB681B689B680122134025
:10248000012B15D1FB681B68DA68FB681B6C92B2E4
:102490001A80FB681B6C9A1CFB681A64FB68462256
:1024A0009B5A9BB2013B99B2FB684622995212E0BB
:1024B000FEF794FD02003B69D31A3A689A4202D8AB
:1024C0003B68013302D13B68002B04D11723FB1872
:1024D00003221A701AE0FB6846229B5A9BB2002B1B
:1024E000C9D13A693968FB68180000F041FB031E46
:1024F00002D0FB6820221A66FB681B6E002B04D0FA
:102500001723FB1801221A7000E0C046FB685D2209
:1025100001219954FB685C22002199541723FB1870
:102520001B781800BD4607B090BDC046FFEFFFFF07
:10253000FFBFFFFF80B58AB000AFF860B9607A6076
:102540001A00BB1C1A8001237B622323FB18002284
:102550001A70FB685C229B5C012B01D102231FE2F5
:10256000FB685C2201219954FEF738FD0300FB61F2
:102570001B203B18FA685D21525C1A70FB685B688F
:102580007B611223FB18BA1C12881A801023FB18D7
:10259000BA1C12881A803B181B78012B12D07A695A
:1025A00082235B009A4208D1FB689B68002B04D110
:1025B0001B23FB181B78042B04D02323FB180222B7
:1025C0001A70E2E1BB68002B06D07B68002B03D0B9
:1025D000BB1C1B88002B04D12323FB1801221A707B
:1025E000D3E1FB685D229B5CDBB2042B03D0FB686C
:1025F0005D2205219954FB6800221A66FB687A68FF
:102600001A64FB68BA1C462112885A52FB68BA1C2D
:10261000442112885A52FB68BA689A63FB68BA1C54
:102620001288DA87FB68BA1C12889A87FB68002236
:10263000DA64FB6800221A65FB68DA68E023DB00D5
:102640009A4204D81023FB181B88012B08D9FB6879
:102650001B685A68FB681B68CA490A405A6008E050
:10266000FB681B685A68FB681B68802149010A43A4
:102670005A60FB681B681B6840221340402B07D040
:10268000FB681B681A68FB681B6840210A431A60D4
:10269000FB68DA68E023DB009A4200D87FE0FB6841
:1026A0005B68002B05D01223FB181B88012B00D080
:1026B00069E0FB689B6B1A88FB681B68DA60FB6843
:1026C0009B6B9A1CFB689A63FB68DB8F9BB2013B98
:1026D0009AB2FB68DA8756E0FB681B689B680222A7
:1026E0001340022B1BD1FB68DB8F9BB2002B16D053
:1026F0007B6A012B13D1FB689B6B1A88FB681B68F4
:10270000DA60FB689B6B9A1CFB689A63FB68DB8F43
:102710009BB2013B9AB2FB68DA8700237B62FB68BD
:102720001B689B6801221340012B1CD1FB684622C9
:102730009B5A9BB2002B16D0FB681B68DA68FB68BB
:102740001B6C92B21A80FB681B6C9A1CFB681A64A3
:10275000FB6846229B5A9BB2013B99B2FB6846221A
:10276000995201237B62FEF739FC0200FB69D31A00
:102770003A6B9A4207D83B6B013304D02323FB18F2
:1027800003221A7001E1FB68DB8F9BB2002BA3D1FF
:10279000FB6846229B5A9BB2002B9DD1E2E0FB686E
:1027A0005B68002B05D01223FB181B88012B00D07F
:1027B000CBE0FB68DB8F9BB2012B12D9FB689B6BD4
:1027C0001A88FB681B68DA60FB689B6B9A1CFB68C5
:1027D0009A63FB68DB8F9BB2023B9AB2FB68DA8795
:1027E000B3E0FB689A6BFB681B680C3312781A70B5
:1027F000FB689B6B5A1CFB689A63FB68DB8F9BB280
:10280000013B9AB2FB68DA879FE0FB681B689B6814
:1028100002221340022B34D1FB68DB8F9BB2002BCA
:102820002FD07B6A012B2CD1FB68DB8F9BB2012B55
:1028300012D9FB689B6B1A88FB681B68DA60FB681F
:102840009B6B9A1CFB689A63FB68DB8F9BB2023B15
:102850009AB2FB68DA8712E0FB689A6BFB681B6828
:102860000C3312781A70FB689B6B5A1CFB689A63D6
:10287000FB68DB8F9BB2013B9AB2FB68DA870023CF
:102880007B62FB681B689B6801221340012B49D1C6
:10289000FB6846229B5A9BB2002B43D0FB68462222
:1028A0009B5A9BB2012B24D9FB681B68DA68FB6832
:1028B0001B6C92B21A80FB681B6C9A1CFB681A6432
:1028C000FB6846229B5A9BB2023B99B2FB684622A8
:1028D0009952FB6846229B5A9BB2012B20D8FB6879
:1028E0001B685A68FB681B68802149010A435A60CB
:1028F00016E0FB681B680C331A00FB681B6C12782F
:10290000D2B21A70FB681B6C5A1CFB681A64FB6815
:1029100046229B5A9BB2013B99B2FB6846229952D0
:1029200001237B62FEF75AFB0200FB69D31A3A6B64
:102930009A4202D83B6B013302D13B6B002B04D18E
:102940002323FB1803221A701FE0FB68DB8F9BB266
:10295000002B00D059E7FB6846229B5A9BB2002B04
:1029600000D052E7FA69396BFB68180000F05EF995
:10297000031E09D02323FB1801221A70FB682022B2
:102980001A6602E0FFEFFFFFC046FB685D220121EF
:102990009954FB685C22002199542323FB181B786F
:1029A0001800BD460AB080BD80B584B000AFF860A5
:1029B000B9603B60FB1D1A7050E03B6801334DD09D
:1029C000FEF70CFB0200BB69D31A3A689A4202D99F
:1029D0003B68002B42D1FB681B685A68FB681B6888
:1029E000E0218A435A60FB685A6882235B009A425E
:1029F00013D1FB689A6880231B029A4205D0FB68BA
:102A00009A688023DB009A4207D1FB681B681A682A
:102A1000FB681B6840218A431A60FB689A6A80231E
:102A20009B019A4210D1FB681B681A68FB681B68FF
:102A300014490A401A60FB681B681A68FB681B6827
:102A4000802189010A431A60FB685D2201219954A3
:102A5000FB685C220021995403230FE0FB681B688C
:102A60009B68BA681340BA68D31A5A425341DBB222
:102A70001A00FB1D1B789A429FD100231800BD4607
:102A800004B080BDFFDFFFFF80B584B000AFF86009
:102A9000B9607A603B605CE0BA68C023DB009A42B0
:102AA00006D17B68002B03D1FB681B680C331B78B5
:102AB0003B6801334DD0FEF791FA0200BB69D31A8F
:102AC0003A689A4202D93B68002B42D1FB681B68E6
:102AD0005A68FB681B68E0218A435A60FB685A68A1
:102AE00082235B009A4213D1FB689A6880231B0201
:102AF0009A4205D0FB689A688023DB009A4207D18E
:102B0000FB681B681A68FB681B6840218A431A60CF
:102B1000FB689A6A80239B019A4210D1FB681B686C
:102B20001A68FB681B6811490A401A60FB681B6839
:102B30001A68FB681B68802189010A431A60FB68D8
:102B40005D2201219954FB685C22002199540323E2
:102B500008E0FB681B689B68BA6813407A689A4271
:102B60009AD100231800BD4604B080BDFFDFFFFFEF
:102B700080B586B002AFF860B9607A60FB685A68C9
:102B800082235B009A4213D1FB689A6880231B0260
:102B90009A4205D0FB689A688023DB009A4207D1ED
:102BA000FB681B681A68FB681B6840218A431A602F
:102BB000BA68F8687B680093130000228021FFF751
:102BC000F3FE031E07D0FB681B6E20221A43FB682E
:102BD0001A66032326E0FB685A6882235B009A4248
:102BE0001FD1FB689A6880231B029A4205D0FB68BC
:102BF0009A688023DB009A4213D1BA68C023D900B7
:102C0000F8687B68009313000022FFF73DFF031E66
:102C100007D0FB681B6E20221A43FB681A66032349
:102C200000E000231800BD4604B080BD80B586B02A
:102C300002AFF860B9607A60BA68C0235901F868D9
:102C40007B68009313000022FFF71EFF031E07D0CE
:102C5000FB681B6E20221A43FB681A66032327E0D9
:102C6000BA68F8687B680093130000228021FFF7A0
:102C70009BFE031E07D0FB681B6E20221A43FB68D5
:102C80001A66032314E0BA68C023D900F8687B6889
:102C9000009313000022FFF7F7FE031E07D0FB6826
:102CA0001B6E20221A43FB681A66032300E00023F0
:102CB0001800BD4604B080BD80B582B000AF78601A
:102CC0007B68002B01D1012344E07B685B6F002B04
:102CD00007D17B687022002199547B681800FEF7A9
:102CE0006BF87B6824225A677B681B681A687B68CC
:102CF0001B6801218A431A607B68180000F0D8F82D
:102D00000300012B01D1012324E07B685B6A002BC7
:102D100003D07B68180000F051FA7B681B685A6882
:102D20007B681B680D490A405A607B681B689A687B
:102D30007B681B6808218A439A607B681B681A6855
:102D40007B681B6801210A431A607B68180000F049
:102D5000E9FA03001800BD4602B080BDFFF7FFFF8F
:102D600080B58AB002AFF860B9603B60BB1D1A80C5
:102D7000FB685B6F202B00D095E0BB68002B03D075
:102D8000BB1D1B88002B01D101238DE0FB689A68D5
:102D900080235B019A4209D1FB681B69002B05D196
:102DA000BB680122134001D001237DE0FB68702243
:102DB0009B5C012B01D1022376E0FB68702201218C
:102DC0009954FB680022DA67FB6821225A67FEF7F4
:102DD00005F903007B61FB68BA1D502112885A5225
:102DE000FB68BA1D522112885A52FB689A688023E8
:102DF0005B019A4208D1FB681B69002B04D10023B8
:102E0000FB61BB68BB6103E0BB68FB610023BB6186
:102E10002DE07A69F8683B68009313000022802156
:102E200000F0C6FA031E01D003233DE0FB69002B2E
:102E30000BD1BB691A88FB681B68D205D20D92B210
:102E40001A85BB690233BB6108E0FB691A78FB682D
:102E50001B6892B21A85FB690133FB61FB68522241
:102E60009B5A9BB2013B99B2FB6852229952FB6874
:102E700052229B5A9BB2002BCBD17A69F8683B68EF
:102E8000009313000022402100F092FA031E01D0AB
:102E9000032309E0FB6820225A67FB6870220021A7
:102EA0009954002300E002231800BD4608B080BDFD
:102EB00080B588B000AF78600023BB611723FB1892
:102EC00000221A707B689A687B681B691A437B68CA
:102ED0005B691A437B68DB6913433B617B681B6852
:102EE0001B68AD4A134019007B681B683A690A43A6
:102EF0001A607B681B685B68A84A134019007B68EE
:102F0000DA687B681B680A435A607B689B693B618F
:102F10007B681B6A3A6913433B617B681B689B684B
:102F20009F4A134019007B681B683A690A439A60FC
:102F30007B681B689B4A934225D19B4B1B6B0322EA
:102F40001340012B0FD004D3022B11D0032B05D03B
:102F500013E01F23FB1800221A7022E01F23FB1826
:102F600002221A701DE01F23FB1804221A7018E0B9
:102F70001F23FB1808221A7013E01F23FB181022CE
:102F80001A70C0460DE07B681B68884A934204D1E2
:102F90001F23FB1800221A7003E01F23FB181022C6
:102FA0001A707B68DA6980231B029A4200D07DE0A8
:102FB0001F23FB181B78022B1CD002DC002B05D032
:102FC0004BE0042B25D0082B37D046E0FEF73CFF22
:102FD0000300FB60FB685A007B685B685B08D218E3
:102FE0007B685B6819001000FDF78EF803009BB248
:102FF000BB6137E07B685B685B086D4A9A187B6849
:103000005B6819001000FDF77FF803009BB2BB61FD
:1030100028E0FEF7A9FE0300FB60FB685A007B680E
:103020005B685B08D2187B685B6819001000FDF7CD
:103030006BF803009BB2BB6114E07B685B685B08C4
:10304000802252029A187B685B6819001000FDF715
:103050005BF803009BB2BB6104E01723FB1801225D
:103060001A70C046BB690F2B1BD9BB69514A9342EA
:1030700017D8BB699AB20A203B180F218A431A80DD
:10308000BB695B089BB20722134099B23B183A1800
:1030900012880A431A807B681B683A181288DA6023
:1030A0006CE01723FB1801221A7067E01F23FB183E
:1030B0001B78022B1BD002DC002B05D049E0042B2F
:1030C00024D0082B35D044E0FEF7BEFE0300FB60A1
:1030D0007B685B685A08FB68D2187B685B681900DC
:1030E0001000FDF711F803009BB2BB6136E07B686E
:1030F0005B685B08304A9A187B685B6819001000AF
:10310000FDF702F803009BB2BB6127E0FEF72CFE3F
:103110000300FB607B685B685A08FB68D2187B6819
:103120005B6819001000FCF7EFFF03009BB2BB6166
:1031300014E07B685B685B08802212029A187B6847
:103140005B6819001000FCF7DFFF03009BB2BB6156
:1031500004E01723FB1801221A70C046BB690F2B2D
:1031600008D9BB69134A934204D87B681B68BA69C3
:10317000DA6003E01723FB1801221A707B68002233
:103180001A667B6800225A661723FB181B78180002
:10319000BD4608B080BDC046F369FFEFFFCFFFFF1B
:1031A000FFF4FFFF003801400010024000440040DF
:1031B0000024F400FFFF000000127A0080B582B006
:1031C00000AF78607B685B6A012213400BD07B689C
:1031D0001B685B684A4A134019007B689A6A7B68DF
:1031E0001B680A435A607B685B6A022213400BD05B
:1031F0007B681B685B68434A134019007B68DA6A86
:103200007B681B680A435A607B685B6A0422134030
:103210000BD07B681B685B683B4A134019007B68D6
:103220001A6B7B681B680A435A607B685B6A0822DA
:1032300013400BD07B681B685B68344A134019004D
:103240007B685A6B7B681B680A435A607B685B6AC1
:10325000102213400BD07B681B689B682C4A1340DC
:1032600019007B689A6B7B681B680A439A607B68CD
:103270005B6A202213400BD07B681B689B68254A41
:10328000134019007B68DA6B7B681B680A439A60FD
:103290007B685B6A402213401DD07B681B685B68BB
:1032A0001D4A134019007B681A6C7B681B680A432F
:1032B0005A607B681A6C80235B039A420BD17B684F
:1032C0001B685B68154A134019007B685A6C7B6861
:1032D0001B680A435A607B685B6A802213400BD0EC
:1032E0007B681B685B680E4A134019007B689A6C08
:1032F0007B681B680A435A60C046BD4602B080BD69
:10330000FFFFFDFFFFFFFEFFFFFFFBFFFF7FFFFF54
:10331000FFEFFFFFFFDFFFFFFFFFEFFFFFFF9FFF5D
:10332000FFFFF7FF80B586B002AF78607B680022B0
:10333000DA67FDF753FE0300FB607B681B681B68C0
:1033400008221340082B0DD1FA688023990378686E
:10335000164B00931300002200F02AF8031E01D040
:1033600003231FE07B681B681B6804221340042BA7
:103370000DD1FA688023D90378680C4B00931300B1
:10338000002200F015F8031E01D003230AE07B6839
:1033900020225A677B6820229A677B68702200216E
:1033A000995400231800BD4604B080BDFFFFFF0103
:1033B00080B584B000AFF860B9603B60FB1D1A7047
:1033C0005DE0BB6901335AD0FDF708FE02003B689F
:1033D000D31ABA699A4202D3BB69002B1BD1FB688E
:1033E0001B681A68FB681B682F490A401A60FB6853
:1033F0001B689A68FB681B6801218A439A60FB6816
:1034000020225A67FB6820229A67FB6870220021FD
:103410009954032343E0FB681B681B680422134094
:103420002DD0FB681B68DA6980231B011A408023BA
:103430001B019A4223D1FB681B68802212011A6289
:10344000FB681B681A68FB681B6817490A401A600A
:10345000FB681B689A68FB681B6801218A439A60B5
:10346000FB6820225A67FB6820229A67FB682022AB
:10347000DA67FB6870220021995403230FE0FB6890
:103480001B68DB69BA681340BA68D31A5A425341C1
:10349000DBB21A00FB1D1B789A4292D00023180061
:1034A000BD4604B080BDC0465FFEFFFF70B500267C
:1034B0000C4D0D4C641BA410A64209D1002600F04F
:1034C0002BF80A4D0A4C641BA410A64205D170BD0E
:1034D000B300EB5898470136EEE7B300EB58984736
:1034E0000136F2E7243700082437000824370008A3
:1034F00028370008002310B59A4200D110BDCC5CDB
:10350000C4540133F8E703001218934200D1704706
:1035100019700133F9E70000F8B5C046F8BC08BCE3
:103520009E467047F8B5C046F8BC08BC9E4670473A
:1035300031323334353637002F6E205061636B657E
:1035400074205265636569766564200A0000000096
:1035500037363534333231003403000015030000B0
:1035600007020100018CBA80081322080000000045
:103570000006110002005200051100010320051190
:10358000010100000811020400000000000D1110EC
:1035900009000814000F31000000000A1111060094
:1035A00001B42B0000001011120C00000108FFFFF5
:1035B000200200000000301011120C0C3000070433
:1035C00000000000000000001011120C18000000A4
:1035D0000000000000000000001011120C24000088
:1035E000000000000000000000000911120530007A
:1035F0000000000008111204360000000010112025
:103600000C000200070186A0018CBA80000605119B
:1036100020010C4D1011200C18018008038000209F
:103620002000E801451011200C2401934C00CA022F
:10363000C2000423802207112003300F508005119F
:10364000200135E01011200C381147478002FFFFA0
:10365000002A0CA4220E11200A458301890100FFD3
:10366000060018400611200250840A061120025458
:103670000507051120015700091120055B40040CC6
:1036800078201011210C00CCA130A021D1B9C9EAB9
:103690000512111011210C0C0A0415FC0300CCA119
:1036A00030A021D11011210C18B9C9EA0512110A54
:1036B0000415FC030008112204000850005D0B11E2
:1036C0002307002C0E0B040C73031011300C0000A8
:1036D00000000000000000000000000C1140080085
:1036E000410E27624EC520FE0000000002030405C3
:1036F000060708090A0B0C0D0E0F10100102030437
:1037000005060708090A0B0C0D0E0F10000000003B
:103710000000000001020304060708090000000081
:04372000010203049B
:04372400E9000008B0
:04372800C1000008D4
:0C372C0000127A00040000000100000000
:0400000508000EA53C
:00000001FF
